:020000040800F2
:10000000D0910120A5710008710300087303000856
:10001000770300087B0300087F030008000000004E
:100020000000000000000000000000007102000855
:100030008303000800000000C502000835B5000871
:10004000BF710008BF710008BF710008BF710008D0
:10005000BF710008BF710008BF710008BF710008C0
:10006000BF710008BF710008BF710008BF710008B0
:10007000BF710008BF710008BF710008BF710008A0
:10008000BF710008BF710008BF710008BF71000890
:10009000BF710008BF710008BF710008BF71000880
:1000A000BF710008BF710008BF710008BF71000870
:1000B000BF710008BF710008BF710008BF71000860
:1000C000BF710008BF710008BF710008BF71000850
:1000D000BF7100081B710008BF710008BF710008E4
:1000E000BF710008BF710008BF710008BF71000830
:1000F000BF710008BF710008BF710008BF71000820
:10010000BF710008BF710008BF710008BF7100080F
:10011000BF710008BF710008BF710008BF710008FF
:10012000BF710008BF710008BF710008BF710008EF
:10013000BF710008BF710008BF710008BF710008DF
:10014000BF710008BF710008BF710008BF710008CF
:10015000BF710008BF710008BF710008BF710008BF
:10016000BF710008BF710008BF710008BF710008AF
:10017000BF710008BF710008BF710008BF7100089F
:10018000BF710008BF71000800F002F800F061F8CC
:100190000AA090E8000C82448344AAF10107DA45E2
:1001A00001D100F056F8AFF2090EBAE80F0013F0D3
:1001B000010F18BFFB1A43F00103184758600400F1
:1001C000786004000A444FF0000C10F8013B13F073
:1001D000070408BF10F8014B1D1108BF10F8015BA0
:1001E000641E05D010F8016B641E01F8016BF9D193
:1001F00013F0080F1EBF10F8014BAD1C0C1B09D1EA
:100200006D1E58BF01F801CBFAD505E014F8016B5B
:1002100001F8016B6D1EF9D59142D6D370470000ED
:100220000023002400250026103A28BF78C1FBD8FF
:10023000520728BF30C148BF0B60704778293FF094
:100240004B85002070471FB540F0C6F81FBD10B5A4
:1002500010BD3FF051FF1146FFF7F5FF00F069F8C0
:100260003FF06FFF03B4FFF7F2FF03BC06F0F6FEAA
:100270002A4B19680868B0E8F04F80F30988BFF38B
:100280006F8F4FF0000080F311887047000000006E
:1002900006480068006880F3088862B661B6BFF35C
:1002A0004F8FBFF36F8F00DF00BF00BF08ED00E08E
:1002B000DFF80C00016841F470010160704700BF75
:1002C00088ED00E0EFF30980BFF36F8F134B1A68DE
:1002D0001EF0100F08BF20ED108A20E9F04F1060CB
:1002E00008B44FF0500080F31188BFF34F8FBFF375
:1002F0006F8F09F053FC4FF0000080F3118808BCA9
:1003000019680868B0E8F04F1EF0100F08BFB0EC95
:10031000108A80F30988BFF36F8F70476800002050
:10032000EFF305807047000010B501202EF0CCFBE4
:1003300010BD10B506F0D2FDA82006F00DFE4FF45A
:10034000E13006F098FE06F065FD08490868804730
:1003500000F0CAFF0EF000FC0BF0C2F90BF07EF9C2
:1003600000F04FF909F0A9FD002010BD2000002089
:10037000704700BFFEE700BFFEE700BFFEE700BF1B
:10038000FEE770470CB500200190009076480068A9
:1003900040F480307449086000BF7348006800F47E
:1003A000003000900198401C0190009818B9019805
:1003B000B0F5A04FF1D16C48006800F4003010B1E6
:1003C0000120009001E0002000900098012846D113
:1003D00065484030006840F0805063494031086013
:1003E0006248006840F44040604908605E48083058
:1003F00000685D49083108600846006840F4004024
:1004000008600846006840F4A05008605848091F7A
:100410000860081F006840F08070091F086000BF76
:100420005148006800F000700028F9D040F20570D3
:10043000504908604C480830006820F003004A49E1
:10044000083108600846006840F00200086000BFFC
:1004500045480830006800F00C000828F8D10CBDB1
:1004600010B54548006840F47000434908603E48B4
:10047000006840F001003C49086000203A4908311A
:100480000860394800683D490840374908603C48E1
:10049000091D0860081F006820F48020091F0860FB
:1004A000002031490C310860FFF76CFF4FF000600D
:1004B00031498039086010BD70B500200022022348
:1004C00000240221284D08352D6805F00C0020B1CC
:1004D000042806D0082834D107E02A4D2A4E35607A
:1004E00033E02A4D284E35602FE01F4D2D1D2D681D
:1004F000C5F380541C4D2D1D2D6805F03F0154B1EE
:10050000224DB5FBF1F5184E361D3668C6F3881638
:1005100005FB06F209E01B4DB5FBF1F5124E361D49
:100520003668C6F3881605FB06F20F4D2D1D2D68A3
:10053000C5F301456D1C6B00B2FBF3F5124E35603F
:1005400003E0104D104E356000BF00BF064D08356A
:100550002D68C5F303150E4E705D0B4D2D68C5401B
:10056000094E356070BD0000003802400070004048
:1005700008544007003C024088ED00E0FFFFF6FE13
:10058000103000240024F4000000002000127A0043
:100590000400002000BF2DF026FE06460BF0C8F830
:1005A00005463CF081FB04467822DC21204610F011
:1005B0009AFF00231A460921204611F0F6FA04E0BA
:1005C00032F0EAF90A2009F0B9F9F9E71CB5144844
:1005D000032100234FF48062CDE9001011A1AFF296
:1005E0004B0008F022FF1CBD10B504460AF05FFF67
:1005F000FFF7ECFF0F48006808F065FF0AF07EFF88
:1006000010BD1CB50B48012100234FF4C052CDE9A9
:10061000001009A1AFF22F0008F007FF1CBD000079
:10062000180000206C765F64656D6F207461736BD9
:100630000000000014000020737461727420746163
:10064000736B000010B50446FE48844208D10121B6
:10065000084607F0EEFC0021012007F0EAFC9DE0CF
:10066000B4F1804F08D10121084607F0D1FC0021E8
:10067000012007F0CDFC91E0F348844208D101212C
:10068000022007F0C5FC0021022007F0C1FC85E034
:10069000EE48844208D10121042007F0B9FC002172
:1006A000042007F0B5FC79E0E948844208D1012133
:1006B000082007F0ADFC0021082007F0A9FC6DE040
:1006C000E448844208D10121102007F0A1FC002158
:1006D000102007F09DFC61E0DF48844208D1012131
:1006E000202007F095FC0021202007F091FC55E028
:1006F000DA48844208D10121022007F09AFC002147
:10070000022007F096FC49E0D548844209D1012136
:10071000080407F08EFC00214FF4803007F089FCBC
:100720003CE0D048844209D10121480407F081FC13
:1007300000214FF4003007F07CFC2FE0CA488442CF
:1007400009D10121880407F074FC00214FF48020B6
:1007500007F06FFC22E0C548844208D10121402007
:1007600007F056FC0021402007F052FC16E0C0487C
:10077000844208D10121802007F04AFC002180201A
:1007800007F046FC0AE0BB48844207D101218015EE
:1007900007F03EFC0021A01507F03AFC10BD002236
:1007A0000288A84B98420ED0AC4B98420BD0B0F1C7
:1007B000804F08D0A44B984205D0A44B984202D059
:1007C000A34B984204D14FF68F731A404B881A43BB
:1007D000A04B984207D0A04B984204D04FF6FF435D
:1007E0001A400B891A4302804B68C3620B88038549
:1007F000944B984202D0994B984201D18B7A038650
:100800000123838270474FF0FF3141600021018056
:1008100001814180817270470185828270470A465A
:10082000002101884FF68F731940114301807047F2
:1008300041627047C16270470146486A704701468D
:10084000088D704721B1028842F00202028004E064
:1008500002884FF6FD731A400280704721B102886A
:1008600042F00402028004E002884FF6FB731A4053
:100870000280704721B1028842F08002028004E0C9
:1008800002884FF67F731A400280704702884FF645
:10089000F7731A40028002880A4302807047028878
:1008A0004FF6FF431A40028002880A4302807047D5
:1008B00021B1028842F00102028004E002884FF672
:1008C000FE731A400280704770B500240022002396
:1008D000058C4FF6FE7635400584028C8388048BA8
:1008E0004FF68F752C40B51E2C400D882C43751E7D
:1008F0002A408D892A434D882A43524DA84202D06E
:10090000564DA84213D14FF6F7752A40CD892A4398
:100910004FF6FB752A408D882A434FF6FF652B4022
:100920004FF6FF552B400D8A2B434D8A2B43838076
:1009300004838D684563028470BD70B50024002275
:100940000023058C4FF6EF7635400584028C8388B2
:10095000048B48F6FF752C404FF6FF452C400D8860
:100960004FF6FF7606EA05252C434FF6DF752A4041
:100970008D8906EA05152A434D8806EA05152A439E
:10098000304DA84202D0354DA8421DD14FF67F759B
:100990002A40CD894FF6FF7606EA05152A434FF621
:1009A000BF752A408D8806EA05152A434FF6FF35A4
:1009B0002B404FF2FF752B400D8A06EA85052B432D
:1009C0004D8A06EA85052B43838004838D68856301
:1009D000028470BD70B5002400220023058C4FF600
:1009E000FF6635400584028C8388848B4FF68F75B3
:1009F0002C404FF6FC752C400D882C434FF6FF55CC
:100A00002A408D894FF6FF7606EA05252A434D8850
:100A100006EA05252A430B4DA84202D00F4DA842F5
:100A200038D14FF2FF752A40CD894FF6FF7606EA9E
:100A300005252A434FF6FF352A408D8806EA05250D
:100A40002A4319E000000140000400400008004073
:100A5000000C004000100040001400400004014061
:100A6000004001400044014000480140001800409F
:100A7000001C0040002000404EF6FF752B404DF654
:100A8000FF752B400D8A06EA05152B434D8A06EAB1
:100A900005152B43838084838D68C563028470BDF4
:100AA00070B5002200230024058C4EF6FF763540F9
:100AB0000584038C8488828B48F6FF752A404FF6A4
:100AC000FF452A400D884FF6FF7606EA05252A43A2
:100AD0004DF6FF752B408D8906EA05352B434D8871
:100AE00006EA05352B43FE4DA84202D0FD4DA84233
:100AF00008D14BF6FF752C400D8A4FF6FF7606EABB
:100B000085152C43848082838D680564038470BDC1
:100B1000002101804180818081608181C1810182C9
:100B20004182704770B503460020002418461830F3
:100B300001258D40ACB21D8CA5431D8409B1082947
:100B40000AD100EB610005684FF68F7635400560ED
:100B50000568154305600FE00D1FC5F34E052844D9
:100B6000056848F6FF763540056005684FF6FF7664
:100B700006EA02263543056070BD41637047816314
:100B80007047C1637047016470470A460021018BBA
:100B90004FF68F7319401143018370470A460021B5
:100BA000018B48F6FF7319404FF6FF7303EA0223E7
:100BB0001943018370470A460021818B4FF68F73DA
:100BC00019401143818370470A460021818B48F602
:100BD000FF7319404FF6FF7303EA02231943818321
:100BE00070470A460021018B4FF6F77319401143F5
:100BF000018370470A460021018B4FF2FF731940B1
:100C00004FF6FF7303EA02231943018370470A4634
:100C10000021818B4FF6F773194011438183704790
:100C20000A460021818B4FF2FF7319404FF6FF7384
:100C300003EA02231943818370470A460021018B8E
:100C40004FF6FB7319401143018370470A46002198
:100C5000018B4FF6FF3319404FF6FF7303EA02236F
:100C60001943018370470A460021818B4FF6FB73BD
:100C700019401143818370470A460021818B4FF64A
:100C8000FF3319404FF6FF7303EA022319438183B0
:100C900070470A460021018B4FF67F7319401143BC
:100CA000018370470A460021018BC1F30E014FF604
:100CB000FF7303EA02231943018370470A460021A8
:100CC000818B4FF67F7319401143818370470A4629
:100CD0000021818BC1F30E014FF6FF7303EA02235B
:100CE0001943818370470A460021018C4FF6FD733A
:100CF00019401143018470470A460021018C4FF6C8
:100D0000F77319401143018470470A460021018C92
:100D10004FF6DF7319404FF6FF7303EA02131943CE
:100D2000018470470A460021018C4FF67F731940F9
:100D30004FF6FF7303EA02131943018470470A4612
:100D40000021018C4FF6FF5319404FF6FF7303EA61
:100D500002231943018470470A460021018C4FF297
:100D6000FF7319404FF6FF7303EA0223194301840E
:100D700070470A460021018C4DF6FF7319404FF66B
:100D8000FF7303EA023319430184704730B500232F
:100D900001248C40A3B2048C9C430484048C02FA8A
:100DA00001F5ADB22C43048430BD30B500230424DA
:100DB0008C40A3B2048C9C430484048C02FA01F599
:100DC000ADB22C43048430BD828B4FF2FF331A4006
:100DD0008283828B4FF6FF7303EA01231A438283D7
:100DE0007047F0B50C461546002100220026078CFE
:100DF0004EF6FF7C07EA0C070784818B028C4FF6C6
:100E0000FF7707EA043640F6FF4739404FF6FF7791
:100E100007EA052739434FF6FF7707EA03373943D7
:100E200045F6FF773A4046F480573A43818302847F
:100E3000F0BD828B4FF6F3731A408283828B0A4394
:100E400082837047F0B50C4615460021002200262B
:100E5000078C4FF6FF6C07EA0C070784818B028C26
:100E60004FF6FF7707EA04264FF60C7739404FF626
:100E7000FF7707EA03172F4339434FF2FF573A40F2
:100E800046F480773A4381830284F0BD028B4FF2AF
:100E9000FF331A400283028B4FF6FF7303EA0123EC
:100EA0001A4302837047F0B50C4615460021002214
:100EB0000026078C4FF6EF7C07EA0C070784018BAE
:100EC000028C4FF6FF7707EA041640F6FF473940D9
:100ED0004FF6FF7707EA033739434FF6FF7703E012
:100EE000000001400004014007EA052739434FF69E
:100EF0005F773A4046F010073A4301830284F0BD21
:100F0000028B4FF6F3731A400283028B0A4302836B
:100F10007047F0B50C46154600210022068C4FF6AE
:100F2000FE773E400684018B028C4FF60C763140F2
:100F30007E1C06EA03162E4331434FF6F576324007
:100F400044F00106324301830284F0BD70B50546CA
:100F50000C46208850B92389A28861882846FFF76B
:100F6000D8FFE1882846FFF7CBFF25E0208804283A
:100F70000AD12389A28861882846FFF794FFE18877
:100F80002846FFF783FF17E0208808280AD1238925
:100F9000A28861882846FFF755FFE1882846FFF7B9
:100FA00048FF09E02389A28861882846FFF719FFD6
:100FB000E1882846FFF708FF70BD002101804180CD
:100FC000012181800021C180018170472DE9F0411C
:100FD00005460C4600260127608808B9022600E075
:100FE0000026A088012801D1022700E001272088DF
:100FF000A0B92389A28861882846FFF78AFFE18883
:101000002846FFF77DFF23893A4631462846FFF7F9
:101010004AFFE1882846FFF739FF13E02389A288B9
:1010200061882846FFF73FFFE1882846FFF72EFF3B
:1010300023893A4631462846FFF76BFFE188284668
:10104000FFF75EFFBDE8F0810146486B704701463F
:10105000886B70470146C86B70470146086C704743
:101060000A884B881A438B881A43CB881A430B890A
:101070001A434B891A438B891A43A0F844207047BE
:101080000021018041808180C18001814181818175
:10109000704731B1B0F8442042F40042A0F8442037
:1010A00005E0B0F84420C2F30E02A0F844207047D7
:1010B00021B1828842F00402828004E082884FF6E7
:1010C000FB731A408280704721B1828842F001028E
:1010D000828004E082884FF6FE731A408280704757
:1010E0001AB183890B43838102E083898B43838117
:1010F00070478182704702460020138A0B400BB173
:10110000012000E000207047CA430282704730B5DA
:101110000246002000230024158A05EA0103958970
:1011200005EA010413B10CB1012000E0002030BD3C
:10113000CA430282704741EA0203A0F84830704770
:101140001AB183890B43838102E083898B438381B6
:10115000704721B1828842F00802828004E08288D0
:101160004FF6F7731A408280704701894FF6F87284
:101170001140018170470A46002101894FF68F73A3
:10118000194011430181704730B504460D46294688
:101190002046FFF7F0FF208940F00700208130BD96
:1011A0002DE9F04104460D4616461F46602D06D136
:1011B0003B46012231462046FFF775FE05E03B46DF
:1011C000012231462046FFF7A4FE29462046FFF7BC
:1011D000D2FF208940F007002081BDE8F08130B5C2
:1011E0000C4600210189C9B24FF6FF7505EA0325B7
:1011F000154325432943018130BD2DE9F0410546C2
:101200000E4617469846002443463A46314628463D
:10121000FFF7E5FF2C894FF6F870044044F007040F
:101220004FF68F70044044F070042C81BDE8F081CB
:10123000F0B504460D4616461F463B463246294643
:101240002046FFF7CCFF208940F480402081F0BD8C
:1012500082884FF68F731A40828082880A43828088
:10126000704702894FF6F8731A40028102890A43D7
:101270000281704702894FF67F731A40028102890A
:101280000A4302817047F0B50C4615461E46002100
:10129000002200230189028B038C4FF6F877394036
:1012A00021434FF6FC473A4040F201173A434FF6CC
:1012B000DD773B404FF6FF7707EA06172F433B43A6
:1012C000018102830384F0BD21B1828842F0800253
:1012D000828004E082884FF67F731A4082807047D4
:1012E000A0F85010704700001CB50121202006F026
:1012F000F1FD01208DF8040000208DF8060001208A
:101300008DF807004FF4C060009003208DF80500B1
:101310006946024806F05CF81CBD0000001402405B
:1013200001B5BDF800000090BDF80000FC49088040
:1013300008BD01B5BDF800000090BDF80000F849F7
:10134000891C088008BD08B5F548801C00880090FD
:10135000BDF8000008BDF24A10804FF0D842A2F854
:101360008010704710B504462046FFF7D9FF0520CE
:1013700005F0C5FDFFF7E7FF10BDEA480089E84921
:1013800008807047E649891C0880704730B50146DF
:1013900001F01F04C1F34513CA0AE50205EB43152A
:1013A0001544A8B230BD00BF011EA0F10102D0B2A9
:1013B000FAD1704730B504460D46DA48808849F2C4
:1013C0004131884211D0D748808845F21031884297
:1013D0000BD0D448808847F28971884205D0D14823
:1013E000808847F29671884214D1CE494889FFF728
:1013F00097FF2012FFF79DFFE0B2FFF79AFFC94960
:101400008889FFF78DFF2812FFF793FFE8B2FFF7F7
:1014100090FFEBE0C348808849F28641884204D0BF
:10142000C0488088891C88422ED1BE494889FFF770
:1014300077FF2012FFF77DFFE0B2FFF77AFFB9498F
:101440000988491EC1F30F20FFF773FFB5490978DA
:10145000491EC8B2FFF76DFFB2498889FFF760FFE8
:101460002812FFF766FFE8B2FFF763FFAD4949882E
:10147000491EC1F30F20FFF75CFFAA498978491E76
:10148000C8B2FFF756FFB1E0A648808846F60401CF
:10149000884205D0A348808849F2814188421DD105
:1014A000A0488079012804D19E480088401E001B76
:1014B00084B29C494889FFF733FF2012FFF739FFB8
:1014C000E0B2FFF736FF97498889FFF729FF281216
:1014D000FFF72FFFE8B2FFF72CFF87E091488088E5
:1014E00041F66311884247D18E488079A8B98D486A
:1014F0000088401E001B84B28A494889FFF710FF0C
:101500000020FFF716FF0020FFF713FF2012FFF760
:1015100010FFE0B2FFF70DFF16E082494889FFF7A0
:10152000FFFE2012FFF705FFE0B2FFF702FF7D4943
:101530000988491EC1F30F20FFF7FBFE794909789E
:10154000491EC8B2FFF7F5FE76498889FFF7E8FE25
:101550002812FFF7EEFEE8B2FFF7EBFE714949886B
:10156000491EC1F30F20FFF7E4FE6E498978491E3A
:10157000C8B2FFF7DEFE39E06A48808845F21051B4
:10158000884220D167494889FFF7CAFE2012FFF739
:10159000D0FE64494989491C88B2FFF7C1FEE0B218
:1015A000FFF7C7FE5F498889FFF7BAFE2812FFF7E9
:1015B000C0FE5C498989491C88B2FFF7B1FEE8B2D8
:1015C000FFF7B7FE12E057488079012804D155484B
:1015D0000088401E001B84B2524948892146FFF70B
:1015E000BAFE504988892946FFF7B5FE30BD2DE97E
:1015F000F04105460E4600240027A04649480088D1
:10160000A84203DD47484088B04202DC0020BDE824
:10161000F08131462846FFF7CDFE4248808845F2EA
:101620001051884204D14FF43850FFF779FE02E0A0
:101630002E20FFF775FE3B48808849F22031884212
:1016400002D10220FFF7AFFEFFF77DFE04463548CA
:10165000808841F66311884201D12046D7E70220F5
:10166000FFF7A1FEFFF76FFE04462E48808849F27F
:10167000413188421DD02B48808845F21031884284
:1016800017D02848808845F21051884211D025484B
:10169000808849F2814188420BD02248808847F2F5
:1016A0008971884205D01F48808849F28841884264
:1016B0000AD10220FFF777FEFFF745FE8046E7B22A
:1016C0004FF6FF7000EA07271648808849F2253157
:1016D000884222D01348808844F2355188421CD079
:1016E00010488088091F884217D00E4880884BF226
:1016F0000551884211D00B4880884CF20551884230
:101700000BD00848808849F28641884205D00548B8
:10171000808847F29671884206D1204677E700001C
:101720007E00006CD4020020F748808849F24131E5
:10173000884217D0F448808845F21031884211D091
:10174000F148808845F2105188420BD0EE488088DD
:1017500047F28971884205D0EB48808849F2884178
:10176000884207D1E012C002B91240EA411040EAB3
:10177000E8204CE72046FFF709FE48E700B5E248BD
:10178000808845F21051884204D14FF42450FFF76D
:10179000C7FD02E02920FFF7C3FD00BD00B5DA4810
:1017A000808845F21051884204D14FF42050FFF751
:1017B000B7FD02E02820FFF7B3FD00BD10B50246DB
:1017C0000C46D1494889FFF7ABFD1012FFF7B1FD78
:1017D000D0B2FFF7AEFDCC498889FFF7A1FD2012FA
:1017E000FFF7A7FDE0B2FFF7A4FD10BDF0B5054679
:1017F00000240027C4488079012811D1C24880887C
:1018000046F6040188420BD0BF48808841F6631138
:10181000884205D0BC48808849F28141884208D17D
:10182000B9488079F0B9B848808841F66311884298
:1018300018D1082D15D2DFE805F00406080A0C0EB1
:10184000101206250DE007250BE0042509E005250B
:1018500007E0012505E0002503E0032501E002255E
:1018600000BF00BFA848808849F24131884234D087
:10187000A548808846F6040188422ED0A248808878
:1018800045F21031884228D09F48808845F2105197
:10189000884222D09C48808841F6631188421CD03F
:1018A0009948808849F28141884216D096488088BC
:1018B00047F28971884210D09348808849F2864166
:1018C00088420AD090488088891C884205D08E487A
:1018D000808847F2967188427ED1082D1CD2DFE8BD
:1018E00005F00406090C0F12151800BF14E044F0AF
:1018F000800411E044F040040EE044F0C0040BE02A
:1019000044F0200408E044F0600405E044F0A00442
:1019100002E044F0E00400BF00BF7B48808845F24D
:101920001051884202D14FF4585700E036277648CC
:10193000808845F2103188420DD07348808845F286
:101940001051884207D07048808841F66311884260
:1019500001D044F008046C48808846F604018842AF
:1019600005D06948808849F28141884201D144F01C
:10197000020421463846FFF7EEFC6348808841F6B2
:101980006311884227D004F0200068B15E480088C7
:101990005D49498888421EDA5B48068840885A4972
:1019A00008800846468016E05748808849F2814101
:1019B000884203D15448807901280CD052480088CD
:1019C00051494988884206DD4F48068840884E497B
:1019D00008800846468000E087E04B48808845F252
:1019E0001051884252D148494889FFF799FC00209C
:1019F000FFF79FFC44494989491C88B2FFF790FCD6
:101A00000020FFF796FC40494989891C88B2FFF7FE
:101A100087FC3D490988491EC1F30F20FFF789FC67
:101A200039494989C91C88B2FFF77AFC36490978D7
:101A3000491EC8B2FFF77DFC33498889FFF770FC67
:101A40000020FFF776FC30498989491C88B2FFF7EE
:101A500067FC0020FFF76DFC2B498989891C88B23F
:101A6000FFF75EFC28494988491EC1F30F20FFF7A4
:101A700060FC25498989C91C88B2FFF751FC2249BD
:101A80008978491EC8B2FFF754FC58E01E494889BE
:101A9000FFF746FC0020FFF74CFC0020FFF749FC55
:101AA00019490988491EC1F30F20FFF742FC164966
:101AB0000978491EC8B2FFF73CFC13498889FFF733
:101AC0002FFC0020FFF735FC0020FFF732FC0E4909
:101AD0004988491EC1F30F20FFF72BFC0A4989787A
:101AE000491EC8B2FFF725FC29E0082D1FD2DFE808
:101AF00005F004070D101215181B44F0300416E011
:101B000044F0100413E00000D402002044F020044C
:101B10000DE000BF0BE044F0380408E044F0280476
:101B200005E044F0180402E044F0080400BF00BFE0
:101B3000032744F4805421463846FFF70CFCF0BDDF
:101B400030B504460D4629462046FFF733FCFFF723
:101B500014FCFE480088FE49088030BD70B505467B
:101B60000E46144631462846FFF724FCFFF705FCD5
:101B7000F748048070BD70B504460D461646F5481A
:101B8000808849F24131884211D0F248808845F27C
:101B9000103188420BD0EF48808847F28971884223
:101BA00005D0EC48808847F29671884214D1E94903
:101BB0004889FFF7B5FB2012FFF7BBFBE0B2FFF748
:101BC000B8FBE4498889FFF7ABFB2812FFF7B1FBAC
:101BD000E8B2FFF7AEFBCCE0DE48808845F210515A
:101BE000884220D1DB494889FFF79AFB2012FFF792
:101BF000A0FBD8494989491C88B2FFF791FBE0B2A4
:101C0000FFF797FBD3498889FFF78AFB2812FFF774
:101C100090FBD0498989491C88B2FFF781FBE8B263
:101C2000FFF787FBA5E0CB48808841F66311884227
:101C300028D1C848807920B9C6480088401E001BBA
:101C400084B2C4494889FFF76BFB2012FFF771FB90
:101C5000E0B2FFF76EFB2012FFF76BFBE0B2FFF77D
:101C600068FBBC498889FFF75BFB2812FFF761FB23
:101C7000E8B2FFF75EFB2812FFF75BFBE8B2FFF765
:101C800058FB76E0B348808846F60401884205D0C8
:101C9000B048808849F2814188421DD1AD488079A1
:101CA000012804D1AB480088401E001B84B2A9491A
:101CB0004889FFF735FB2012FFF73BFBE0B2FFF747
:101CC00038FBA4498889FFF72BFB2812FFF731FB6B
:101CD000E8B2FFF72EFB4CE09E48808849F286412F
:101CE000884204D09B488088891C88422ED199491B
:101CF0004889FFF715FB2012FFF71BFBE0B2FFF747
:101D000018FB94490988491EC1F30F20FFF711FB06
:101D100090490978491EC8B2FFF70BFB8D498889A5
:101D2000FFF7FEFA2812FFF704FBE8B2FFF701FB0A
:101D300088494988491EC1F30F20FFF7FAFA8549FF
:101D40008978491EC8B2FFF7F4FA12E08148807919
:101D5000012804D17F480088401E001B84B27D49C1
:101D600048892146FFF7F7FA7A4988892946FFF71B
:101D7000F2FA784800897649891E08804FF0D840E9
:101D8000A0F8806070BD70B52DED048B0446BE20B8
:101D9000FFF7C6FA0520FFF7CCFA20463EF00BFA13
:101DA00041EC190B9FED6C0B53EC102B3EF016FA27
:101DB00041EC180B3EF0D2F985B22846FFF7B9FA8C
:101DC0000120FFF7B6FAFF20FFF7B3FA0020FFF774
:101DD000B0FA0020FFF7ADFABDEC048B70BD10B572
:101DE0000446002C7DD15B498871F02008804FF4B7
:101DF000A07048800846808849F24131884228D046
:101E00005448808846F60401884222D05148808890
:101E100045F2103188421CD04E48808849F28141F9
:101E2000884216D04B48808847F28971884210D08A
:101E30004848808849F2864188420AD045488088CF
:101E4000891C884205D04348808847F296718842B1
:101E500030D12C203F4908812A2048812B208881BD
:101E60000846808846F6040188421BD0394880889D
:101E700045F21031884215D03648808849F28141B8
:101E800088420FD033488088491D88420AD03148A3
:101E90008088891C884205D02E48808847F2967138
:101EA000884206D14FF4A0702A4908804FF4F070A0
:101EB0004880E1E02748808845F21051884211D1DE
:101EC0004FF43050234908814FF4285048814FF493
:101ED0002C5088814FF4F07008804FF4487048808F
:101EE000CAE01BE01B48808841F6631188420DD18F
:101EF0002C20184908812B2048812A2088814FF402
:101F0000F07008804FF448704880B5E022201149F5
:101F100008812020488121208881ADE001200D49E1
:101F200088714FF4A0700880F020488008468088AF
:101F300049F24131884228D00648808845F2103164
:101F4000884222D0034880880AE000001C0000205C
:101F50008000006CD40200206666666666660440F7
:101F600047F28971884210D0FE48808849F2864144
:101F700088420AD0FB488088891C884205D0F948ED
:101F8000808847F29671884207D12C20F549088154
:101F90002A2048812B20888145E0F248808846F637
:101FA0000401884205D0EF48808849F28141884287
:101FB00007D12C20EB4908812B2048812A208881D9
:101FC00031E0E848808845F21051884210D14FF442
:101FD0003050E44908814FF4285048814FF42C5088
:101FE00088814FF4487008804FF4F07048801AE000
:101FF000DC48808841F6631188420DD12C20D949F4
:1020000008812A2048812B2088814FF4487008805D
:102010004FF4F070488006E02220D2490881212048
:10202000488120208881CF48808846F60401884274
:102030001BD0CC48808845F21031884215D0C94861
:10204000808849F2814188420FD0C6488088491D66
:1020500088420AD0C3488088891C884205D0C1487C
:10206000808847F29671884206D14FF4F070BD49DE
:1020700008804FF4A07048800020FFF7B7FB10BD28
:102080002DE9F04F86B004460D469046994604EB84
:102090000800401E86B205EB0900401E87B2B14819
:1020A000808849F24131884232D0AE48808845F27A
:1020B000103188422CD0AB48808846F60401884213
:1020C00026D0A848808849F28141884220D0A5487E
:1020D000808847F2897188421AD0A248808849F2E4
:1020E0008641884214D09F488088891C88420FD03E
:1020F0009C48808847F29671884209D09948807937
:10210000012826D19748808841F66311884220D162
:1021100094494889FFF704F92012FFF70AF9E0B261
:10212000FFF707F93012FFF704F9F0B2FFF701F9F2
:102130008C498889FFF7F4F82812FFF7FAF8E8B21B
:10214000FFF7F7F83812FFF7F4F8F8B2FFF7F1F8F5
:10215000B8E08448808841F66311884234D18148D0
:102160000088A0EB0800001B84B205EB0900401EAC
:102170001FFA80F97B494889FFF7D2F82012FFF750
:10218000D8F8E0B2FFF7D5F804EB0801491EC1F317
:102190000F20FFF7CEF804EB0801491EC8B2FFF785
:1021A000C8F870498889FFF7BBF82812FFF7C1F813
:1021B000E8B2FFF7BEF84FEA2920FFF7BAF809F0B6
:1021C000FF00FFF7B6F87DE06648808845F21051C1
:1021D000884244D163494889FFF7A2F82012FFF7EB
:1021E000A8F860494989491C88B2FFF799F8E0B21C
:1021F000FFF79FF85B494989891C88B2FFF790F87F
:102200003012FFF796F857494989C91C88B2FFF781
:1022100087F8F0B2FFF78DF852498889FFF780F808
:102220002812FFF786F84F498989491C88B2FFF7C1
:1022300077F8E8B2FFF77DF84A498989891C88B2A6
:10224000FFF76EF83812FFF774F846498989C91C00
:1022500088B2FFF765F8F8B2FFF76BF832E0414853
:10226000807901280ED1AA46BB463E480088801BD3
:10227000401E80B201903B480088001B401E80B287
:10228000009003E0A246B3460195009750200590C8
:1022900051200490522003905320029051460598FB
:1022A000FFF759F859460498FFF755F80199039834
:1022B000FFF751F800990298FFF74DF8294620469C
:1022C000FFF778F806B0BDE8F08F70B50446002639
:1022D00024480588408845432248808846F6040102
:1022E000884205D01F48808849F28141884216D132
:1022F0001C488079012812D100201A4988712A20AF
:1023000048812B20888100210846FFF753F80120DF
:10231000144988712B2048812A20888103E00021FC
:102320000846FFF747F8FFF728F8002602E00E48B6
:102330000480761CAE42FAD370BD00B5A1B0002077
:10234000209001217A2005F0C5FD0121084605F005
:10235000F9FD4FF400401E9001208DF87C00002014
:1023600004E00000D40200208000006C8DF87E00A4
:1023700002208DF87D0001208DF87F001EA9FE4807
:1023800005F026F84CF233701E9002208DF87C0088
:1023900000208DF87E0003208DF87D0001208DF84F
:1023A0007F001EA9F54805F013F84FF680701E90C7
:1023B00002208DF87C0000208DF87E0003208DF82F
:1023C0007D0001208DF87F001EA9ED4805F000F882
:1023D0004FF480501E9002208DF87C0000208DF874
:1023E0007E0003208DF87D0001208DF87F001EA95E
:1023F000E44804F0EDFF4FF480501E9002208DF869
:102400007C0000208DF87E0003208DF87D000120E7
:102410008DF87F001EA9DC4804F0DAFF0C220021B1
:10242000D64805F060F80C220121D44805F05BF88D
:102430000C220421D14805F056F80C220521CF4882
:1024400005F051F80C220821CC4805F04CF80C227C
:102450000921CA4805F047F80C220A21C74805F0AF
:1024600042F80C220E21C54805F03DF80C220F2140
:10247000C24805F038F80C220721C14805F033F8AE
:102480000C220821BE4805F02EF80C220921BC4878
:1024900005F029F80C220A21B94805F024F80C228D
:1024A0000B21B74805F01FF80C221146B44805F07F
:1024B0001AF80C220D21B24805F015F80C220E2155
:1024C000AF4805F010F80C220F21AD4805F00BF8CD
:1024D0000C221146AB4805F006F80C221146AA481A
:1024E00005F001F80F200890002009903C200A9088
:1024F00000200B900C900D900E9009200190002070
:1025000002901120039000200490059006900790FF
:1025100006200F90002010901190102012900020A3
:10252000139015901490169017904FF480501890B7
:10253000002019904FF480401A9000201B9008A8AA
:102540001C9001A81D900FA805F021F8012106207C
:1025500005F0A8F8322004F0F0FC01210020FEF77D
:10256000FAFE322004F0E9FC0020FEF7FBFE87496A
:10257000888008468088FF280ADB084680884FF656
:10258000FF71884204D081488088B0F5134F7DD117
:10259000D320FEF7C5FEFEF7D6FE7C498880FEF705
:1025A000D2FE7A498880FEF7CEFE784988800846B8
:1025B00080884FF6FF7101EA002074498880FEF799
:1025C000C2FE72498988084370498880084680881D
:1025D00049F24131884259D06C48808849F286419D
:1025E0008842F8D069488088891C8842F3D06748BF
:1025F000808847F296718842EDD00420FEF790FE65
:10260000FEF7A1FE61498880FEF79DFE5F49888044
:10261000FEF799FE5D498880084680884FF6FF7175
:1026200001EA002059498880FEF78DFE57498988C4
:102630000843564988800846808848F252518842AB
:1026400003D147F28970514988805048808847F209
:1026500089718842BFD0BF20FEF762FEFEF773FE8D
:102660004A498880FEF76FFE48498880FEF76BFE76
:1026700046498880FEF767FE44498880084680887E
:102680004FF6FF7101EA0020404900E080E08880B9
:10269000FEF759FE3D49898808433C498880084631
:1026A000808846F60401884272D03848808849F212
:1026B000814188426CD0D420FEF732FEFEF743FE03
:1026C00032498880FEF73FFE30498880FEF73BFEA6
:1026D0002E498880084680884FF6FF7101EA002065
:1026E0002A498880FEF72FFE284989880843274910
:1026F00088800846808845F21031884266D04FF4C1
:102700005A40FEF70DFEFEF71EFE204988804FF46A
:102710005B40FEF705FEFEF716FE1C498880084662
:1027200080884FF6FF7101EA0020184988804FF435
:102730005C40FEF7F5FDFEF706FE14498988084364
:102740001249888008468088B0F5004F02D145F2D2
:10275000105088800D48808845F21051884235D04D
:10276000A120FEF7DDFDFEF7EEFD08498880FEF7AB
:10277000EAFD064988800CE000040240000C02409B
:10278000001002400014024000180240D402002051
:102790001CE0084680884FF6FF7101EA0020FE49E0
:1027A0008880FEF7D0FDFC4989880843FA49888073
:1027B0000846808845F26171884204D141F6631071
:1027C000F549888002E00020F3498880F24880883B
:1027D00049F2413188422ED0EF48808845F21031CD
:1027E000884228D0EC48808845F21051884222D097
:1027F000E948808841F6631188421CD0E648808809
:1028000049F28141884216D0E348808847F28971B5
:10281000884210D0E048808849F2864188420AD038
:10282000DD488088891C884205D0DB48808847F2D3
:10283000967188421DD1D948006820F00F004FF0F2
:102840002041C1F81C010846D0F81C0120F470603A
:10285000C1F81C010846D0F81C0140F00300C1F883
:102860001C010846D0F81C0140F40070C1F81C019E
:1028700028E0C948808846F60401884205D0C64849
:1028800080884CF2055188421CD1C448006820F071
:102890000F004FF02041C1F81C010846D0F81C0180
:1028A00020F47060C1F81C010846D0F81C0140F00B
:1028B0000A00C1F81C010846D0F81C0140F4406031
:1028C000C1F81C01B4488188B5A03DF0C5F9B248F3
:1028D000808849F2413188427ED1CF20FEF720FD29
:1028E0000020FEF726FDC120FEF723FD3020FEF775
:1028F00020FDED20FEF714FD6420FEF71AFD0320F5
:10290000FEF717FD1220FEF714FD8120FEF711FDE2
:10291000E820FEF705FD8520FEF70BFD1020FEF7F1
:1029200008FD7A20FEF705FDCB20FEF7F9FC3920E3
:10293000FEF7FFFC2C20FEF7FCFC0020FEF7F9FC64
:102940003420FEF7F6FC0220FEF7F3FCF720FEF73A
:10295000E7FC2020FEF7EDFCEA20FEF7E1FC00207A
:10296000FEF7E7FC0020FEF7E4FCC020FEF7D8FCF1
:102970001B20FEF7DEFCC120FEF7D2FC0120FEF793
:10298000D8FCC520FEF7CCFC3020FEF7D2FC30206E
:10299000FEF7CFFCC720FEF7C3FCB720FEF7C9FC4B
:1029A0003620FEF7BDFC4820FEF7C3FC3A20FEF7B8
:1029B000B7FC5520FEF7BDFCB120FEF7B1FC0020AE
:1029C000FEF7B7FC1A20FEF7B4FCB620FEF7A8FC11
:1029D0000A20FEF7AEFC00E097E0A220FEF7A9FC7B
:1029E000F220FEF79DFC0020FEF7A3FC2620FEF758
:1029F00097FC0120FEF79DFCE020FEF791FC0F20E4
:102A0000FEF797FC2A20FEF794FC2820FEF791FCA5
:102A10000820FEF78EFC0E20FEF78BFC0820FEF748
:102A200088FC5420FEF785FCA920FEF782FC432099
:102A3000FEF77FFC0A20FEF77CFC0F20FEF779FCF6
:102A40000020FEF776FC0020FEF773FC0020FEF766
:102A500070FC0020FEF76DFCE120FEF761FC002019
:102A6000FEF767FC1520FEF764FC1720FEF761FCFB
:102A70000720FEF75EFC1120FEF75BFC0620FEF748
:102A800058FC2B20FEF755FC5620FEF752FC3C204C
:102A9000FEF74FFC0520FEF74CFC1020FEF749FC2A
:102AA0000F20FEF746FC3F20FEF743FC3F20FEF7D9
:102AB00040FC0F20FEF73DFC2B20FEF731FC0020F0
:102AC000FEF737FC0020FEF734FC0120FEF731FC56
:102AD0003F20FEF72EFC2A20FEF722FC0020FEF706
:102AE00028FC0020FEF725FC0020FEF722FCEF204A
:102AF000FEF71FFC1120FEF713FC782004F01DFAEE
:102B00002920FEF70DFC03F025BD2348808846F6FA
:102B1000040188427DD11120FEF702FC142004F04C
:102B20000CFAD020FEF7FCFB0720FEF702FC422047
:102B3000FEF7FFFB1D20FEF7FCFBD120FEF7F0FBAC
:102B40000020FEF7F6FB1A20FEF7F3FB0920FEF744
:102B5000F0FBD220FEF7E4FB0120FEF7EAFB222087
:102B6000FEF7E7FBC020FEF7DBFB1020FEF7E1FBE2
:102B70003B20FEF7DEFB0020FEF7DBFB0220FEF72A
:102B8000D8FB1120FEF7D5FBC520FEF7C9FB0320BB
:102B9000FEF7CFFBC8200BE0D40200201C0100A0F0
:102BA000204C43442049443A25780D0A0000000097
:102BB000FEF7B6FB0020FEF7BCFB2520FEF7B9FBB5
:102BC0002120FEF7B6FB0520FEF7B3FB0020FEF741
:102BD000B0FB0A20FEF7ADFB6520FEF7AAFB25201F
:102BE000FEF7A7FB7720FEF7A4FB5020FEF7A1FB22
:102BF0000F20FEF79EFB0020FEF79BFBF820FEF760
:102C00008FFB0120FEF795FBFE20FEF789FB0020DD
:102C100000E038E0FEF78DFB0220FEF78AFB202063
:102C2000FEF77EFB3620FEF77BFB0820FEF781FBDC
:102C30003A20FEF775FB5520FEF77BFB2B20FEF7B5
:102C40006FFB0020FEF775FB0020FEF772FB0120F2
:102C5000FEF76FFB3F20FEF76CFB2A20FEF760FBC0
:102C60000020FEF766FB0020FEF763FB0120FEF765
:102C700060FBDF20FEF75DFB782004F05EF9292081
:102C8000FEF74EFB3FE7FE48808847F28971884295
:102C90007ED11120FEF744FB782004F04EF9362057
:102CA000FEF73EFB0020FEF744FB3A20FEF738FB20
:102CB0000520FEF73EFBB220FEF732FB0C20FEF7AC
:102CC00038FB0C20FEF735FB0020FEF732FB3320EB
:102CD000FEF72FFB3320FEF72CFBB720FEF720FB7F
:102CE0003520FEF726FBBB20FEF71AFB3220FEF74D
:102CF00020FBC020FEF714FB0C20FEF71AFBC220BD
:102D0000FEF70EFB0120FEF714FBC320FEF708FBC5
:102D10001020FEF70EFBC420FEF702FB2020FEF77A
:102D200008FBC620FEF7FCFA0F20FEF702FBD020BE
:102D3000FEF7F6FAA420FEF7FCFAA120FEF7F9FA56
:102D4000E020FEF7EDFAD020FEF7F3FA0020FEF7C0
:102D5000F0FA0220FEF7EDFA0720FEF7EAFA0A2061
:102D6000FEF7E7FA2820FEF7E4FA3220FEF7E1FA50
:102D70004420FEF7DEFA4220FEF7DBFA0620FEF7DB
:102D8000D8FA0E20FEF7D5FA1220FEF7D2FA00E0AC
:102D900054E01420FEF7CDFA1720FEF7CAFAE1201E
:102DA000FEF7BEFAD020FEF7C4FA0020FEF7C1FA03
:102DB0000220FEF7BEFA0720FEF7BBFA0A20FEF754
:102DC000B8FA2820FEF7B5FA3120FEF7B2FA5420FF
:102DD000FEF7AFFA4720FEF7ACFA0E20FEF7A9FA8D
:102DE0001C20FEF7A6FA1720FEF7A3FA1B20FEF719
:102DF000A0FA1E20FEF79DFA2A20FEF791FA002085
:102E0000FEF797FA0020FEF794FA0020FEF791FAF9
:102E1000EF20FEF78EFA2B20FEF782FA0020FEF755
:102E200088FA0020FEF785FA0120FEF782FA3F209B
:102E3000FEF77FFA2920FEF773FA64E6904880884F
:102E400049F2814188427CD11120FEF769FA1420B1
:102E500004F073F8D020FEF763FA0720FEF769FA52
:102E60004220FEF766FA1C20FEF763FAD120FEF737
:102E700057FA0020FEF75DFA1020FEF75AFA1020EC
:102E8000FEF757FAD220FEF74BFA0120FEF751FA6F
:102E90001120FEF74EFAE420FEF742FAA020FEF7DA
:102EA00048FAF320FEF73CFA0020FEF742FA2A2007
:102EB000FEF73FFAC020FEF733FA1020FEF739FA8A
:102EC0003B20FEF736FA0020FEF733FA0220FEF729
:102ED00030FA1120FEF72DFAC520FEF721FA032063
:102EE000FEF727FAC820FEF71BFA0020FEF721FAAA
:102EF0003520FEF71EFA2320FEF71BFA0720FEF707
:102F000018FA0020FEF715FA0420FEF712FA452001
:102F1000FEF70FFA5320FEF70CFA7720FEF709FAB6
:102F20007020FEF706FA0020FEF703FA0420FEF7F1
:102F300000FA3620FEF7F4F90A20FEF7FAF93A20F3
:102F400000E02FE0FEF7ECF95520FEF7F2F92A2019
:102F5000FEF7E6F90020FEF7ECF90020FEF7E9F9AC
:102F60000120FEF7E6F93F20FEF7E3F92B20FEF7FC
:102F7000D7F90020FEF7DDF90020FEF7DAF901208D
:102F8000FEF7D7F9E020FEF7D4F9782003F0D5FF5B
:102F90002120FEF7C5F92920FEF7C2F92C20FEF703
:102FA000BFF9B0E53648808849F28641884269D148
:102FB000F220FEF7B5F91820FEF7BBF9A320FEF7C3
:102FC000B8F91220FEF7B5F90220FEF7B2F9B220E7
:102FD000FEF7AFF91220FEF7ACF9FF20FEF7A9F9D2
:102FE0001020FEF7A6F90020FEF7A3F9F820FEF75F
:102FF00097F92120FEF79DF90420FEF79AF9F920B0
:10300000FEF78EF90020FEF794F90820FEF791F9FB
:103010003620FEF785F90820FEF78BF93A20FEF7F7
:103020007FF90520FEF785F9B420FEF779F9012034
:10303000FEF77FF9B620FEF773F90220FEF779F963
:103040002220FEF776F9C120FEF76AF94120FEF74B
:1030500070F9C520FEF764F90020FEF76AF9072031
:10306000FEF767F9E020FEF75BF90F20FEF761F944
:103070001F20FEF75EF91C20FEF75BF90C2002E032
:10308000D40200205CE0FEF754F90F20FEF751F95E
:103090000820FEF74EF94820FEF74BF99820FEF77E
:1030A00048F93720FEF745F90A20FEF742F91320C8
:1030B000FEF73FF90420FEF73CF91120FEF739F93D
:1030C0000D20FEF736F90020FEF733F9E120FEF778
:1030D00027F90F20FEF72DF93220FEF72AF92E20CE
:1030E000FEF727F90B20FEF724F90D20FEF721F952
:1030F0000520FEF71EF94720FEF71BF97520FEF7A5
:1031000018F93720FEF715F90620FEF712F91020FE
:10311000FEF70FF90320FEF70CF92420FEF709F95A
:103120002020FEF706F90020FEF703F91120FEF734
:10313000F7F8782003F001FF2920FEF7F1F8E2E428
:10314000FE48808849F2884188427CD1E020FEF721
:10315000E7F80020FEF7EDF81B20FEF7EAF81F2045
:10316000FEF7E7F80A20FEF7E4F80F20FEF7E1F893
:103170000720FEF7DEF83C20FEF7DBF83820FEF7EC
:10318000D8F84920FEF7D5F80020FEF7D2F80C2039
:10319000FEF7CFF80B20FEF7CCF81520FEF7C9F8A4
:1031A0001720FEF7C6F80F20FEF7C3F8E120FEF760
:1031B000B7F80020FEF7BDF81920FEF7BAF81B207B
:1031C000FEF7B7F80420FEF7B4F80F20FEF7B1F8C9
:1031D0000420FEF7AEF83020FEF7ABF83220FEF701
:1031E000A8F84020FEF7A5F80120FEF7A2F8072076
:1031F000FEF79FF80E20FEF79CF82B20FEF799F8BB
:103200003220FEF796F80F20FEF793F8F820FEF72D
:1032100087F82120FEF78DF80420FEF78AF8F920C0
:10322000FEF77EF80020FEF784F80820FEF781F80C
:103230003620FEF775F80820FEF77BF83A20FEF7F7
:103240006FF8052000E029E0FEF773F8B420FEF7E0
:1032500067F80120FEF76DF8B620FEF761F802204E
:10326000FEF767F82220FEF764F8C120FEF758F851
:103270004120FEF75EF8C520FEF752F80020FEF769
:1032800058F80720FEF755F81120FEF749F8782086
:1032900003F053FE2920FEF743F834E4A748808862
:1032A00047F2967188427CD11120FEF739F87820D8
:1032B00003F043FE3620FEF733F84820FEF739F8D6
:1032C0003A20FEF72DF85520FEF733F8F020FEF7F0
:1032D00027F8C320FEF72DF8F020FEF721F89620FE
:1032E000FEF727F8B420FEF71BF80120FEF721F8BF
:1032F000B620FEF715F80A20FEF71BF8A220FEF70D
:1033000018F8B720FEF70CF8C620FEF712F8B9201F
:10331000FEF706F80220FEF70CF8E020FEF709F8A9
:10332000C020FDF7FDFF8020FEF703F81620FEF712
:1033300000F8C120FDF7F4FF1920FDF7FAFFC220C5
:10334000FDF7EEFFA720FDF7F4FFC520FDF7E8FF2E
:103350001620FDF7EEFFE820FDF7E2FF4020FDF725
:10336000E8FF8A20FDF7E5FF0020FDF7E2FF0020DF
:10337000FDF7DFFF2920FDF7DCFF1920FDF7D9FF5E
:10338000A520FDF7D6FF3320FDF7D3FFE020FDF7A2
:10339000C7FFF020FDF7CDFF0720FDF7CAFF0D2086
:1033A00000E065E0FDF7C5FF0420FDF7C2FF052042
:1033B000FDF7BFFF1420FDF7BCFF3620FDF7B9FF76
:1033C0005420FDF7B6FF4C20FDF7B3FF3820FDF782
:1033D000B0FF1320FDF7ADFF1420FDF7AAFF2E204C
:1033E000FDF7A7FF3420FDF7A4FFE120FDF798FFCC
:1033F000F020FDF79EFF1020FDF79BFF1420FDF746
:1034000098FF0E20FDF795FF0C20FDF792FF082096
:10341000FDF78FFF3520FDF78CFF4420FDF789FF76
:103420004C20FDF786FF2620FDF783FF1020FDF7D7
:1034300080FF1220FDF77DFF2C20FDF77AFF322060
:10344000FDF777FFF020FDF76BFF3C20FDF771FFE4
:10345000F020FDF765FF6920FDF76BFF782003F092
:103460006CFD2120FDF75CFF2920FDF759FF09E4E1
:103470003248808845F21031884240F07C87ED2048
:10348000FDF74EFF0120FDF754FFFE20FDF751FF31
:10349000EE20FDF745FFDE20FDF74BFF2120FDF775
:1034A00048FFF120FDF73CFF0120FDF742FFDF2040
:1034B000FDF736FF1020FDF73CFFC420FDF730FF7D
:1034C0008F20FDF736FFC620FDF72AFF0020FDF70D
:1034D00030FFE220FDF72DFFE220FDF72AFFE2207A
:1034E000FDF727FFBF20FDF71BFFAA20FDF721FFF7
:1034F000B020FDF715FF0D20FDF71BFF0020FDF7A5
:1035000018FF0D20FDF715FF0020FDF712FF112019
:10351000FDF70FFF0020FDF70CFF1920FDF709FF55
:103520000020FDF706FF2120FDF703FF0020FDF737
:1035300000FF2D20FDF7FDFE002001E0D402002059
:10354000FDF7F7FE3D20FDF7F4FE0020FDF7F1FE4C
:103550005D20FDF7EEFE0020FDF7EBFE5D20FDF7A0
:10356000E8FE0020FDF7E5FEB120FDF7D9FE802042
:10357000FDF7DFFE0020FDF7DCFE8B20FDF7D9FE16
:103580000020FDF7D6FE9620FDF7D3FE0020FDF7C4
:10359000D0FEB220FDF7C4FE0020FDF7CAFE0020D9
:1035A000FDF7C7FE0220FDF7C4FE0020FDF7C1FEB7
:1035B0000320FDF7BEFE0020FDF7BBFEB320FDF7A4
:1035C000AFFE0020FDF7B5FE0020FDF7B2FE0020A3
:1035D000FDF7AFFE0020FDF7ACFE0020FDF7A9FED1
:1035E0000020FDF7A6FE0020FDF7A3FE0020FDF75A
:1035F000A0FE0020FDF79DFE0020FDF79AFE0020B2
:10360000FDF797FE0020FDF794FE0020FDF791FEE8
:103610000020FDF78EFE0020FDF78BFE0020FDF759
:1036200088FE0020FDF785FE0020FDF782FE0020C9
:10363000FDF77FFE0020FDF77CFE0020FDF779FE00
:103640000020FDF776FE0020FDF773FE0020FDF759
:1036500070FEB420FDF764FE8B20FDF76AFE0020AB
:10366000FDF767FE9620FDF764FE0020FDF761FE82
:10367000A120FDF75EFE0020FDF75BFEB520FDF703
:103680004FFE0220FDF755FE0020FDF752FE0320FD
:10369000FDF74FFE0020FDF74CFE0420FDF749FE2C
:1036A0000020FDF746FEB620FDF73AFE0020FDF7AC
:1036B00040FE0020FDF73DFEB720FDF731FE002063
:1036C000FDF737FE0020FDF734FE3F20FDF731FE09
:1036D0000020FDF72EFE5E20FDF72BFE0020FDF7FB
:1036E00028FE6420FDF725FE0020FDF722FE8C2039
:1036F000FDF71FFE0020FDF71CFEAC20FDF719FEB4
:103700000020FDF716FEDC20FDF713FE0020FDF77C
:1037100010FE7020FDF70DFE0020FDF70AFE902040
:10372000FDF707FE0020FDF704FEEB20FDF701FE8C
:103730000020FDF7FEFDDC20FDF7FBFD0020FDF77E
:10374000F8FDB820FDF7ECFD0020FDF7F2FD0020AC
:10375000FDF7EFFD0020FDF7ECFD0020FDF7E9FD92
:103760000020FDF7E6FD0020FDF7E3FD0020FDF75A
:10377000E0FD0020FDF7DDFDBA20FDF7D1FD24209E
:10378000FDF7D7FD0020FDF7D4FD0020FDF7D1FDAA
:103790000020FDF7CEFDC120FDF7C2FD2020FDF782
:1037A000C8FD0020FDF7C5FD5420FDF7C2FD002037
:1037B000FDF7BFFDFF20FDF7BCFD0020FDF7B9FDC3
:1037C000C220FDF7ADFD0A20FDF7B3FD0020FDF797
:1037D000B0FD0420FDF7ADFD0020FDF7AAFDC320DC
:1037E000FDF79EFD3C20FDF7A4FD0020FDF7A1FDA7
:1037F0003A20FDF79EFD0020FDF79BFD3920FDF7E7
:1038000098FD0020FDF795FD3720FDF792FD002083
:10381000FDF78FFD3C20FDF78CFD0020FDF789FDB5
:103820003620FDF786FD0020FDF783FD3220FDF7F1
:1038300080FD0020FDF77DFD2F20FDF77AFD0020A3
:10384000FDF777FD2C20FDF774FD0020FDF771FDDD
:103850002920FDF76EFD0020FDF76BFD2620FDF70A
:1038600068FD0020FDF765FD2420FDF762FD0020C6
:10387000FDF75FFD2420FDF75CFD0020FDF759FDFD
:103880002320FDF756FD0020FDF753FD3C20FDF7FA
:1038900050FD0020FDF74DFD3620FDF74AFD0020CC
:1038A000FDF747FD3220FDF744FD0020FDF741FD07
:1038B0002F20FDF73EFD0020FDF73BFD2C20FDF7FE
:1038C00038FD0020FDF735FD2920FDF732FD0020F1
:1038D000FDF72FFD2620FDF72CFD0020FDF729FD2B
:1038E0002420FDF726FD0020FDF723FD2420FDF711
:1038F00020FD0020FDF71DFD2320FDF71AFD00200F
:10390000FDF717FDC420FDF70BFD6220FDF711FD4B
:103910000020FDF70EFD0520FDF70BFD0020FDF753
:1039200008FD8420FDF705FD0020FDF702FDF020D5
:10393000FDF7FFFC0020FDF7FCFC1820FDF7F9FC6B
:103940000020FDF7F6FCA420FDF7F3FC0020FDF7B6
:10395000F0FC1820FDF7EDFC0020FDF7EAFC5020FC
:10396000FDF7E7FC0020FDF7E4FC0C20FDF7E1FC8F
:103970000020FDF7DEFC1720FDF7DBFC0020FDF743
:10398000D8FC9520FDF7D5FC0020FDF7D2FCF320F4
:10399000FDF7CFFC0020FDF7CCFCE620FDF7C9FCCD
:1039A0000020FDF7C6FCC520FDF7BAFC3220FDF76C
:1039B000C0FC0020FDF7BDFC4420FDF7BAFC002050
:1039C000FDF7B7FC6520FDF7B4FC0020FDF7B1FC66
:1039D0007620FDF7AEFC0020FDF7ABFC8820FDF75C
:1039E000A8FC0020FDF7A5FCC620FDF799FC2020CF
:1039F000FDF79FFC0020FDF79CFC1720FDF799FCCC
:103A00000020FDF796FC0120FDF793FC0020FDF758
:103A100090FCC720FDF784FC0020FDF78AFC002005
:103A2000FDF787FC0020FDF784FC0020FDF781FCFA
:103A3000C820FDF775FC0020FDF77BFC0020FDF79A
:103A400078FC0020FDF775FC0020FDF772FCC92012
:103A5000FDF766FC0020FDF76CFC0020FDF769FC1B
:103A60000020FDF766FC0020FDF763FC0020FDF759
:103A700060FC0020FDF75DFC0020FDF75AFC0020F3
:103A8000FDF757FC0020FDF754FC0020FDF751FC2A
:103A90000020FDF74EFC0020FDF74BFC0020FDF759
:103AA00048FC0020FDF745FC0020FDF742FC00200B
:103AB000FDF73FFCE020FDF733FC1620FDF739FC55
:103AC0000020FDF736FC1C20FDF733FC0020FDF73D
:103AD00030FC2120FDF72DFC0020FDF72AFC3620CC
:103AE000FDF727FC0020FDF724FC4620FDF721FC14
:103AF0000020FDF71EFC5220FDF71BFC0020FDF707
:103B000018FC6420FDF715FC0020FDF712FC7A205C
:103B1000FDF70FFC0020FDF70CFC8B20FDF709FCE6
:103B20000020FDF706FC9920FDF703FC0020FDF7BF
:103B300000FCA820FDF7FDFB0020FDF7FAFBB920F3
:103B4000FDF7F7FB0020FDF7F4FBC420FDF7F1FBC8
:103B50000020FDF7EEFBCA20FDF7EBFB0020FDF790
:103B6000E8FBD220FDF7E5FB0020FDF7E2FBD920C2
:103B7000FDF7DFFB0020FDF7DCFBE020FDF7D9FBC4
:103B80000020FDF7D6FBF320FDF7D3FB0020FDF767
:103B9000D0FBE120FDF7C4FB1620FDF7CAFB002097
:103BA000FDF7C7FB1C20FDF7C4FB0020FDF7C1FBA0
:103BB0002220FDF7BEFB0020FDF7BBFB3620FDF702
:103BC000B8FB0020FDF7B5FB4520FDF7B2FB002058
:103BD000FDF7AFFB5220FDF7ACFB0020FDF7A9FB82
:103BE0006420FDF7A6FB0020FDF7A3FB7A20FDF77C
:103BF000A0FB0020FDF79DFB8B20FDF79AFB00202A
:103C0000FDF797FB9920FDF794FB0020FDF791FB52
:103C1000A820FDF78EFB0020FDF78BFBB920FDF7F8
:103C200088FB0020FDF785FBC420FDF782FB002008
:103C3000FDF77FFBCA20FDF77CFB0020FDF779FB39
:103C4000D220FDF776FB0020FDF773FBD820FDF7AF
:103C500070FB0020FDF76DFBE020FDF76AFB002004
:103C6000FDF767FBF320FDF764FB0020FDF761FB28
:103C7000E220FDF755FB0520FDF75BFB0020FDF77B
:103C800058FB0B20FDF755FB0020FDF752FB1B20D6
:103C9000FDF74FFB0020FDF74CFB3420FDF749FBFF
:103CA0000020FDF746FB4420FDF743FB0020FDF715
:103CB00040FB4F20FDF73DFB0020FDF73AFB612064
:103CC000FDF737FB0020FDF734FB7920FDF731FBD2
:103CD0000020FDF72EFB8820FDF72BFB0020FDF7D1
:103CE00028FB9720FDF725FB0020FDF722FBA620EF
:103CF000FDF71FFB0020FDF71CFBB720FDF719FBAC
:103D00000020FDF716FBC220FDF713FB0020FDF796
:103D100010FBC720FDF70DFB0020FDF70AFBD120AB
:103D2000FDF707FB0020FDF704FBD620FDF701FBA4
:103D30000020FDF7FEFADD20FDF7FBFA0020FDF77D
:103D4000F8FAF320FDF7F5FA0020FDF7F2FAE32088
:103D5000FDF7E6FA0520FDF7ECFA0020FDF7E9FA99
:103D60000A20FDF7E6FA0020FDF7E3FA1C20FDF734
:103D7000E0FA0020FDF7DDFA3320FDF7DAFA002043
:103D8000FDF7D7FA4420FDF7D4FA0020FDF7D1FA69
:103D90005020FDF7CEFA0020FDF7CBFA6220FDF7A8
:103DA000C8FA0020FDF7C5FA7820FDF7C2FA002016
:103DB000FDF7BFFA8820FDF7BCFA0020FDF7B9FA3D
:103DC0009720FDF7B6FA0020FDF7B3FAA620FDF71D
:103DD000B0FA0020FDF7ADFAB720FDF7AAFA0020EF
:103DE000FDF7A7FAC220FDF7A4FA0020FDF7A1FA1B
:103DF000C720FDF79EFA0020FDF79BFAD120FDF7C2
:103E000098FA0020FDF795FAD520FDF792FA0020E8
:103E1000FDF78FFADD20FDF78CFA0020FDF789FA17
:103E2000F320FDF786FA0020FDF783FAE420FDF782
:103E300077FA0120FDF77DFA0020FDF77AFA0120DC
:103E4000FDF777FA0020FDF774FA0220FDF771FA0A
:103E50000020FDF76EFA2A20FDF76BFA0020FDF72F
:103E600068FA3C20FDF765FA0020FDF762FA4B2066
:103E7000FDF75FFA0020FDF75CFA5D20FDF759FAC7
:103E80000020FDF756FA7420FDF753FA0020FDF7E5
:103E900050FA8420FDF74DFA0020FDF74AFA9320EE
:103EA000FDF747FA0020FDF744FAA220FDF741FA9A
:103EB0000020FDF73EFAB320FDF73BFA0020FDF7A6
:103EC00038FABE20FDF735FA0020FDF732FAC4209B
:103ED000FDF72FFA0020FDF72CFACD20FDF729FA87
:103EE0000020FDF726FAD320FDF723FA0020FDF786
:103EF00020FADD20FDF71DFA0020FDF71AFAF32065
:103F0000FDF717FA0020FDF714FAE520FDF708FA8F
:103F10000020FDF70EFA0020FDF70BFA0020FDF758
:103F200008FA0020FDF705FA0220FDF702FA00204A
:103F3000FDF7FFF92920FDF7FCF90020FDF7F9F95D
:103F40003C20FDF7F6F90020FDF7F3F94B20FDF7D3
:103F5000F0F90020FDF7EDF95D20FDF7EAF900200A
:103F6000FDF7E7F97420FDF7E4F90020FDF7E1F92A
:103F70008420FDF7DEF90020FDF7DBF99320FDF743
:103F8000D8F90020FDF7D5F9A220FDF7D2F90020DD
:103F9000FDF7CFF9B320FDF7CCF90020FDF7C9F903
:103FA000BE20FDF7C6F90020FDF7C3F9C420FDF7D8
:103FB000C0F90020FDF7BDF9CD20FDF7BAF90020CA
:103FC000FDF7B7F9D320FDF7B4F90020FDF7B1F9FB
:103FD000DC20FDF7AEF90020FDF7ABF9F320FDF78B
:103FE000A8F90020FDF7A5F9E620FDF799F91120C1
:103FF000FDF79FF90020FDF79CF93420FDF799F9B2
:104000000020FDF796F95620FDF793F90020FDF703
:1040100090F97620FDF78DF90020FDF78AF97720D9
:10402000FDF787F90020FDF784F96620FDF781F997
:104030000020FDF77EF98820FDF77BF90020FDF7D1
:1040400078F99920FDF775F90020FDF772F9BB208A
:10405000FDF76FF90020FDF76CF99920FDF769F97C
:104060000020FDF766F96620FDF763F90020FDF7F3
:1040700060F95520FDF75DF90020FDF75AF955204C
:10408000FDF757F90020FDF754F94520FDF751F9E8
:104090000020FDF74EF94320FDF74BF90020FDF716
:1040A00048F94420FDF745F90020FDF742F9E720E3
:1040B000FDF736F93220FDF73CF90020FDF739F91C
:1040C0005520FDF736F90020FDF733F97620FDF78E
:1040D00030F90020FDF72DF96620FDF72AF90020C0
:1040E000FDF727F96720FDF724F90020FDF721F9F6
:1040F0006720FDF71EF90020FDF71BF98720FDF76B
:1041000018F90020FDF715F99920FDF712F90020A4
:10411000FDF70FF9BB20FDF70CF90020FDF709F9B9
:104120009920FDF706F90020FDF703F97720FDF748
:1041300000F90020FDF7FDF84420FDF7FAF8002013
:10414000FDF7F7F85620FDF7F4F80020FDF7F1F839
:104150002320FDF7EEF80020FDF7EBF83320FDF704
:10416000E8F80020FDF7E5F84520FDF7E2F800202B
:10417000FDF7DFF8E820FDF7D3F80020FDF7D9F8C8
:104180000020FDF7D6F89920FDF7D3F80020FDF7C1
:10419000D0F88720FDF7CDF80020FDF7CAF8882079
:1041A000FDF7C7F80020FDF7C4F87720FDF7C1F848
:1041B0000020FDF7BEF86620FDF7BBF80020FDF7F4
:1041C000B8F88820FDF7B5F80020FDF7B2F8AA206E
:1041D000FDF7AFF80020FDF7ACF8BB20FDF7A9F81C
:1041E0000020FDF7A6F89920FDF7A3F80020FDF7C1
:1041F000A0F86620FDF79DF80020FDF79AF85520FD
:10420000FDF797F80020FDF794F85520FDF791F899
:104210000020FDF78EF84420FDF78BF80020FDF715
:1042200088F84420FDF785F80020FDF782F8552036
:10423000FDF77FF80020FDF77CF8E920FDF770F826
:10424000AA20FDF776F80020FDF773F80020FDF7AF
:1042500070F80020FDF76DF80020FDF761F8AA2046
:10426000FDF767F8CF20FDF75BF80020FDF761F858
:104270000020FDF75EF80020FDF75BF80020FDF759
:1042800058F80020FDF755F80020FDF752F80020FF
:10429000FDF74FF80020FDF74CF80020FDF749F836
:1042A0000020FDF746F80020FDF743F80020FDF759
:1042B00040F80020FDF73DF80020FDF73AF8002017
:1042C000FDF737F80020FDF734F80020FDF731F84E
:1042D000F020FDF725F80020FDF72BF85020FDF722
:1042E00028F80020FDF725F80020FDF722F800202F
:1042F000FDF71FF8F320FDF713F80020FDF719F87C
:10430000F920FDF70DF80620FDF713F81020FDF752
:1043100010F82920FDF70DF80020FDF70AF83A20E3
:10432000FCF7FEFF5520FDF704F81120FCF7F8FF1D
:10433000642002F002FE2920FCF7F2FF3520FCF792
:10434000EFFF0020FCF7F5FF5120FCF7E9FFFF200D
:10435000FCF7EFFF5320FCF7E3FF2C20FCF7E9FF0D
:104360005520FCF7DDFF8220FCF7E3FF2C20FCF753
:10437000D7FF02F0EFB8FE48808845F2105188421E
:104380007ED155214FF47040FCF7E5FFAA214FF292
:104390000100FCF7E0FF52214FF20200FCF7DBFFC7
:1043A00008214FF20300FCF7D6FF01214FF2040071
:1043B000FCF7D1FF0D214FF43040FCF7CCFF0D216D
:1043C0004BF20100FCF7C7FF0D214BF20200FCF796
:1043D000C2FF34214FF43640FCF7BDFF34214BF2CD
:1043E0000160FCF7B8FF34214BF20260FCF7B3FF29
:1043F0000D214FF43140FCF7AEFF0D214BF20110BF
:10440000FCF7A9FF0D214BF20210FCF7A4FF3421A9
:104410004FF43740FCF79FFF34214BF20170FCF75B
:104420009AFF34214BF20270FCF795FF00214FF404
:104430003240FCF790FF00214BF20120FCF78BFF8C
:1044400000214BF20220FCF786FF24214FF4384074
:10445000FCF781FF24214BF60100FCF77CFF2421AF
:104460004BF60200FCF777FF01214FF43F40FCF7C9
:1044700072FF0F214FF43340FCF76DFF0F2100E076
:10448000FEE34BF20130FCF766FF0F214BF20230E6
:10449000FCF761FF34214FF43940FCF75CFF342115
:1044A0004BF60110FCF757FF34214BF60210FCF7D6
:1044B00052FF08214FF43540FCF74DFF08214BF225
:1044C0000150FCF748FF08214BF20250FCF743FF74
:1044D00003214FF44240FCF73EFF24214FF43A40C1
:1044E000FCF739FF24214BF60120FCF734FF24218F
:1044F0004BF60220FCF72FFF00214FF43C40FCF765
:104500002AFF78214BF60140FCF725FF00214BF6EE
:104510000240FCF720FF00214FF43D40FCF71BFF59
:1045200078214BF60150FCF716FF00214BF60250A4
:10453000FCF711FF00214FF43E40FCF70CFF642113
:104540004BF60160FCF707FF00214FF45140FCF7E8
:1045500002FF33214DF20110FCF7FDFE00214DF268
:104560000210FCF7F8FE34214DF20310FCF7F3FEC5
:1045700000214DF20410FCF7EEFE3A214DF2051039
:10458000FCF7E9FE00214DF20610FCF7E4FE4A219B
:104590004DF20710FCF7DFFE00214DF20810FCF78A
:1045A000DAFE5C214DF20910FCF7D5FE00214DF238
:1045B0000A10FCF7D0FE81214DF20B10FCF7CBFE68
:1045C00000214DF20C10FCF7C6FEA6214DF20D1095
:1045D000FCF7C1FE00214DF20E10FCF7BCFEE521F8
:1045E0004DF20F10FCF7B7FE01214DF21010FCF751
:1045F000B2FE13214DF21110FCF7ADFE01214DF278
:104600001210FCF7A8FE54214DF21310FCF7A3FE84
:1046100001214DF21410FCF79EFE82214DF215107F
:10462000FCF799FE01214DF21610FCF794FECA2109
:104630004DF21710FCF78FFE02214DF21810FCF717
:104640008AFE00214DF21910FCF785FE02214DF281
:104650001A10FCF780FE01214DF21B10FCF77BFEC7
:1046600002214DF21C10FCF776FE34214DF21D1094
:10467000FCF771FE02214DF21E10FCF76CFE672163
:104680004DF21F10FCF767FE02214DF22010FCF7DF
:1046900062FE84214DF22110FCF75DFE02214DF2F5
:1046A0002210FCF758FEA4214DF22310FCF753FE14
:1046B00002214DF22410FCF74EFEB7214DF22510D9
:1046C000FCF749FE02214DF22610FCF744FECF21F3
:1046D0004DF22710FCF73FFE02214DF22810FCF7A7
:1046E0003AFEDE214DF22910FCF735FE02214DF293
:1046F0002A10FCF730FEF2214DF22B10FCF72BFEB6
:1047000002214DF22C10FCF726FEFE214DF22D1059
:10471000FCF721FE03214DF22E10FCF71CFE1021A8
:104720004DF22F10FCF717FE03214DF23010FCF76D
:1047300012FE33214DF23110FCF70DFE03214DF234
:104740003210FCF708FE6D214DF23310FCF703FE2A
:1047500000214FF45240FCF7FEFD33214DF20120C1
:10476000FCF7F9FD00214DF20220FCF7F4FD01E019
:10477000D402002034214DF20320FCF7ECFD00218F
:104780004DF20420FCF7E7FD3A214DF20520FCF73D
:10479000E2FD00214DF20620FCF7DDFD4A214DF23D
:1047A0000720FCF7D8FD00214DF20820FCF7D3FDCF
:1047B0005C214DF20920FCF7CEFD00214DF20A20CC
:1047C000FCF7C9FD81214DF20B20FCF7C4FD00214F
:1047D0004DF20C20FCF7BFFDA6214DF20D20FCF799
:1047E000BAFD00214DF20E20FCF7B5FDE5214DF29A
:1047F0000F20FCF7B0FD01214DF21020FCF7ABFDBE
:1048000013214DF21120FCF7A6FD01214DF21220DB
:10481000FCF7A1FD54214DF21320FCF79CFD012172
:104820004DF21420FCF797FD82214DF21520FCF784
:1048300092FD01214DF21620FCF78DFDCA214DF2AB
:104840001720FCF788FD02214DF21820FCF783FDAC
:1048500000214DF21920FCF77EFD02214DF21A20B5
:10486000FCF779FD01214DF21B20FCF774FD0221BC
:104870004DF21C20FCF76FFD34214DF21D20FCF79A
:104880006AFD02214DF21E20FCF765FD67214DF205
:104890001F20FCF760FD02214DF22020FCF75BFD9C
:1048A00084214DF22120FCF756FD02214DF22220F9
:1048B000FCF751FDA4214DF22320FCF74CFD022111
:1048C0004DF22420FCF747FDB7214DF22520FCF7DF
:1048D00042FD02214DF22620FCF73DFDCF214DF295
:1048E0002720FCF738FD02214DF22820FCF733FD8C
:1048F000DE214DF22920FCF72EFD02214DF22A2067
:10490000FCF729FDF2214DF22B20FCF724FD0221BA
:104910004DF22C20FCF71FFDFE214DF22D20FCF75F
:104920001AFD03214DF22E20FCF715FD10214DF24A
:104930002F20FCF710FD03214DF23020FCF70BFD7A
:1049400033214DF23120FCF706FD03214DF23220D8
:10495000FCF701FD6D214DF23320FCF7FCFC00213A
:104960004FF45340FCF7F7FC33214DF20130FCF7D4
:10497000F2FC00214DF20230FCF7EDFC34214DF247
:104980000330FCF7E8FC00214DF20430FCF7E3FCB7
:104990003A214DF20530FCF7DEFC00214DF20630E5
:1049A000FCF7D9FC4A214DF20730FCF7D4FC00217A
:1049B0004DF20830FCF7CFFC5C214DF20930FCF7DA
:1049C000CAFC00214DF20A30FCF7C5FC81214DF2F2
:1049D0000B30FCF7C0FC00214DF20C30FCF7BBFCA7
:1049E000A6214DF20D30FCF7B6FC00214DF20E3041
:1049F000FCF7B1FCE5214DF20F30FCF7ACFC0121D6
:104A00004DF21030FCF7A7FC13214DF21130FCF7EA
:104A1000A2FC01214DF21230FCF79DFC54214DF215
:104A20001330FCF798FC01214DF21430FCF793FC95
:104A300082214DF21530FCF78EFC01214DF216302B
:104A4000FCF789FCCA214DF21730FCF784FC0221E7
:104A50004DF21830FCF77FFC00214DF21930FCF7C5
:104A60007AFC02214DF21A30FCF775FC01214DF25F
:104A70001B30FCF770FC02214DF21C30FCF76BFC84
:104A800034214DF21D30FCF766FC02214DF21E3040
:104A9000FCF761FC67214DF21F30FCF75CFC022142
:104AA0004DF22030FCF757FC84214DF22130FCF709
:104AB00052FC02214DF22230FCF74DFCA4214DF2B4
:104AC0002330FCF748FC02214DF22430FCF743FC74
:104AD000B7214DF22530FCF73EFC02214DF2263085
:104AE000FCF739FCCF214DF22730FCF734FC0221D2
:104AF0004DF22830FCF72FFCDE214DF22930FCF777
:104B00002AFC02214DF22A30FCF725FCF2214DF25D
:104B10002B30FCF720FC02214DF22C30FCF71BFC63
:104B2000FE214DF22D30FCF716FC03214DF22E3004
:104B3000FCF711FC10214DF22F30FCF70CFC032187
:104B40004DF23030FCF707FC33214DF23130FCF7E9
:104B500002FC03214DF23230FCF7FDFB6D214DF2DA
:104B60003330FCF7F8FB00214FF45440FCF7F3FB23
:104B700033214DF20140FCF7EEFB00214DF20240E3
:104B8000FCF7E9FB34214DF20340FCF7E4FB002184
:104B90004DF20440FCF7DFFB3A214DF20540FCF7F3
:104BA000DAFB00214DF20640FCF7D5FB4A214DF21D
:104BB0000740FCF7D0FB00214DF20840FCF7CBFB8F
:104BC0005C214DF20940FCF7C6FB00214DF20A4082
:104BD000FCF7C1FB81214DF20B40FCF7BCFB00212F
:104BE0004DF20C40FCF7B7FBA6214DF20D40FCF74F
:104BF000B2FB00214DF20E40FCF7ADFBE5214DF27A
:104C00000F40FCF7A8FB01214DF21040FCF7A3FB7D
:104C100013214DF21140FCF79EFB01214DF2124091
:104C2000FCF799FB54214DF21340FCF794FB012152
:104C30004DF21440FCF78FFB82214DF21540FCF73A
:104C40008AFB01214DF21640FCF785FBCA214DF28B
:104C50001740FCF780FB02214DF21840FCF77BFB6C
:104C600000214DF21940FCF776FB02214DF21A406B
:104C7000FCF771FB01214DF21B40FCF76CFB00E0DF
:104C800004E302214DF21C40FCF765FB34214DF298
:104C90001D40FCF760FB02214DF21E40FCF75BFB60
:104CA00067214DF21F40FCF756FB02214DF22040D8
:104CB000FCF751FB84214DF22140FCF74CFB022113
:104CC0004DF22240FCF747FBA4214DF22340FCF7B4
:104CD00042FB02214DF22440FCF73DFBB7214DF28F
:104CE0002540FCF738FB02214DF22640FCF733FB50
:104CF000CF214DF22740FCF72EFB02214DF2284038
:104D0000FCF729FBDE214DF22940FCF724FB0221B0
:104D10004DF22A40FCF71FFBF2214DF22B40FCF72D
:104D20001AFB02214DF22C40FCF715FBFE214DF23F
:104D30002D40FCF710FB03214DF22E40FCF70BFB3E
:104D400010214DF22F40FCF706FB03214DF23040BD
:104D5000FCF701FB33214DF23140FCF7FCFA032153
:104D60004DF23240FCF7F7FA6D214DF23340FCF77B
:104D7000F2FA00214FF45540FCF7EDFA33214DF2E1
:104D80000150FCF7E8FA00214DF20250FCF7E3FA7B
:104D900034214DF20350FCF7DEFA00214DF20450AD
:104DA000FCF7D9FA3A214DF20550FCF7D4FA00216C
:104DB0004DF20650FCF7CFFA4A214DF20750FCF7AE
:104DC000CAFA00214DF20850FCF7C5FA5C214DF2F9
:104DD0000950FCF7C0FA00214DF20A50FCF7BBFA6B
:104DE00081214DF20B50FCF7B6FA00214DF20C5028
:104DF000FCF7B1FAA6214DF20D50FCF7ACFA0021F8
:104E00004DF20E50FCF7A7FAE5214DF20F50FCF7DA
:104E1000A2FA01214DF21050FCF79DFA13214DF238
:104E20001150FCF798FA01214DF21250FCF793FA59
:104E300054214DF21350FCF78EFA01214DF214501B
:104E4000FCF789FA82214DF21550FCF784FA012112
:104E50004DF21650FCF77FFACA214DF21750FCF7BD
:104E60007AFA02214DF21850FCF775FA00214DF242
:104E70001950FCF770FA02214DF21A50FCF76BFA48
:104E800001214DF21B50FCF766FA02214DF21C5035
:104E9000FCF761FA34214DF21D50FCF75CFA022157
:104EA0004DF21E50FCF757FA67214DF21F50FCF7E8
:104EB00052FA02214DF22050FCF74DFA84214DF2B6
:104EC0002150FCF748FA02214DF22250FCF743FA38
:104ED000A4214DF22350FCF73EFA02214DF224505A
:104EE000FCF739FAB7214DF22550FCF734FA0221CC
:104EF0004DF22650FCF72FFACF214DF22750FCF748
:104F00002AFA02214DF22850FCF725FADE214DF253
:104F10002950FCF720FA02214DF22A50FCF71BFA27
:104F2000F2214DF22B50FCF716FA02214DF22C50D3
:104F3000FCF711FAFE214DF22D50FCF70CFA03217B
:104F40004DF22E50FCF707FA10214DF22F50FCF7CE
:104F500002FA03214DF23050FCF7FDF933214DF2F6
:104F60003150FCF7F8F903214DF23250FCF7F3F918
:104F70006D214DF23350FCF7EEF900214FF456400D
:104F8000FCF7E9F933214DF20160FCF7E4F9002167
:104F90004DF20260FCF7DFF934214DF20360FCF7BB
:104FA000DAF900214DF20460FCF7D5F93A214DF20F
:104FB0000560FCF7D0F900214DF20660FCF7CBF953
:104FC0004A214DF20760FCF7C6F900214DF2086056
:104FD000FCF7C1F95C214DF20960FCF7BCF9002136
:104FE0004DF20A60FCF7B7F981214DF20B60FCF736
:104FF000B2F900214DF20C60FCF7ADF9A6214DF29B
:105000000D60FCF7A8F900214DF20E60FCF7A3F942
:10501000E5214DF20F60FCF79EF901214DF2106081
:10502000FCF799F913214DF21160FCF794F9012175
:105030004DF21260FCF78FF954214DF21360FCF72A
:105040008AF901214DF21460FCF785F982214DF2B5
:105050001560FCF780F901214DF21660FCF77BF931
:10506000CA214DF21760FCF776F902214DF2186063
:10507000FCF771F900214DF21960FCF76CF902217F
:105080004DF21A60FCF767F901214DF21B60FCF745
:1050900062F902214DF21C60FCF75DF934214DF2FA
:1050A0001D60FCF758F902214DF21E60FCF753F920
:1050B00067214DF21F60FCF74EF902214DF220608E
:1050C000FCF749F984214DF22160FCF744F90221F3
:1050D0004DF22260FCF73FF9A4214DF22360FCF76A
:1050E0003AF902214DF22460FCF735F9B7214DF26F
:1050F0002560FCF730F902214DF22660FCF72BF910
:10510000CF214DF22760FCF726F902214DF22860ED
:10511000FCF721F9DE214DF22960FCF71CF9022190
:105120004DF22A60FCF717F9F2214DF22B60FCF7E3
:1051300012F902214DF22C60FCF70DF9FE214DF21F
:105140002D60FCF708F903214DF22E60FCF703F9FE
:1051500010214DF22F60FCF7FEF803214DF2306074
:10516000FCF7F9F833214DF23160FCF7F4F8032134
:105170004DF23260FCF7EFF86D214DF23360FCF731
:10518000EAF855214FF47040FCF7E5F8AA214FF2F8
:105190000100FCF7E0F852214FF20200FCF7DBF8C7
:1051A00008214FF20300FCF7D6F800214FF204006B
:1051B000FCF7D1F8CC214FF43140FCF7CCF80021BA
:1051C0004BF20110FCF7C7F805214FF43640FCF70D
:1051D000C2F870214FF43740FCF7BDF870214BF254
:1051E0000170FCF7B8F801214FF43840FCF7B3F830
:1051F00003214BF60100FCF7AEF803214BF6020049
:10520000FCF7A9F803214BF60300FCF7A4F80221F0
:105210004FF43C40FCF79FF800214BF60140FCF7AF
:105220009AF800214BF60240FCF795F8D0214FF494
:105230004940FCF790F802214CF60110FCF78BF87E
:1052400050214CF60210FCF786F850214CF6031062
:10525000FCF781F850214CF60410FCF77CF8002193
:105260004FF45450FCF777F855214FF46850FCF791
:1052700072F84FF48850FCF753F8782001F03FFEA5
:105280004FF42450FCF74CF801F064B9FE488088D4
:1052900049F2253188427DD147F6F001E520FCF73F
:1052A0005AF84FF480710120FCF755F84FF4E06193
:1052B0000220FCF750F841F230010320FCF74BF8D4
:1052C00000210420FCF747F840F202210820FCF7F7
:1052D00042F800210920FCF73EF800210A20FCF7E3
:1052E0003AF800210C20FCF736F800210D20FCF7DD
:1052F00032F800210F20FCF72EF800211020FCF7D7
:105300002AF807211120FCF726F800211220FCF7CB
:1053100022F800211320FCF71EF800210720FCF7DB
:105320001AF841F290611020FCF715F840F227219D
:105330001120FCF710F89D211220FCF70CF84FF417
:10534000C8511320FCF707F825212920FCF703F8A2
:105350000D212B20FBF7FFFF07213020FBF7FBFF80
:1053600040F203313120FBF7F6FF03213220FBF737
:10537000F2FF40F206213520FBF7EDFF0821362031
:10538000FBF7E9FF40F206413720FBF7E4FF4FF45B
:10539000417100E058E03820FBF7DDFF072139209C
:1053A000FBF7D9FF40F202613C20FBF7D4FF082154
:1053B0003D20FBF7D0FF00215020FBF7CCFFEF2171
:1053C0005120FBF7C8FF00215220FBF7C4FF40F239
:1053D0003F115320FBF7BFFF4FF427416020FBF73D
:1053E000BAFF01216120FBF7B6FF00216A20FBF71D
:1053F000B2FF00218020FBF7AEFF00218120FBF7E8
:10540000AAFF00218220FBF7A6FF00218320FBF7E3
:10541000A2FF00218420FBF79EFF00218520FBF7DF
:105420009AFF10219020FBF796FF4FF4C061922065
:10543000FBF791FF40F233110720FBF78CFF22218D
:105440000020FBF788FF1FE78F48808849F228314A
:1054500088427DD141F28F01EC20FBF77CFF41F2C5
:105460003421EF20FBF777FF4FF480710120FBF729
:1054700072FF4FF4E0610220FBF76DFF41F2300153
:105480000320FBF768FF00210420FBF764FF40F2D4
:1054900002210820FBF75FFF00210920FBF75BFFDB
:1054A00000210A20FBF757FF01210C20FBF753FFD7
:1054B00000210D20FBF74FFF00210F20FBF74BFFD2
:1054C00000211020FBF747FF07211120FBF743FFC6
:1054D00000211220FBF73FFF00211320FBF73BFFC9
:1054E00001210720FBF737FF322001F026FD41F2B2
:1054F00090411020FBF72FFF40F227211120FBF7EE
:105500002AFF322001F019FD8A211220FBF723FF28
:10551000322001F012FD4FF4D0511320FBF71BFF96
:1055200006212920FBF717FF0D212B20FBF713FF86
:10553000322001F002FD00212020FBF70CFF0021AA
:105540002120FBF708FF322001F0F7FC002100E0EA
:1055500075E03020FBF7FFFE40F204613120FBF7DD
:10556000FAFE40F205313220FBF7F5FE002135202E
:10557000FBF7F1FE40F609413620FBF7ECFE4FF455
:1055800001713720FBF7E7FE40F201313820FBF7CD
:10559000E2FE40F207713920FBF7DDFE00213C20DE
:1055A000FBF7D9FE40F60A213D20FBF7D4FE32205E
:1055B00001F0C3FC00215020FBF7CDFEEF2151206C
:1055C000FBF7C9FE00215220FBF7C5FE40F23F1158
:1055D0005320FBF7C0FE4FF427416020FBF7BBFED2
:1055E00001216120FBF7B7FE00216A20FBF7B3FE23
:1055F00000218020FBF7AFFE00218120FBF7ABFEEE
:1056000000218220FBF7A7FE00218320FBF7A3FEE9
:1056100000218420FBF79FFE00218520FBF79BFEE5
:1056200010219020FBF797FE4FF4C0619220FBF70A
:1056300092FE40F233110720FBF78DFE24E612485C
:10564000808849F2203188427ED100210846FBF74C
:1056500082FE4FF480710120FBF77DFE4FF4E06184
:105660000220FBF778FE41F230010320FBF773FEC6
:1056700000210420FBF76FFE40F202210820FBF717
:105680006AFE0021092001E0D4020020FBF763FE3E
:1056900000210A20FBF75FFE01210C20FBF75BFED7
:1056A00000210D20FBF757FE00210F20FBF753FED2
:1056B000322001F042FC40F201110720FBF74BFEC3
:1056C000322001F03AFC4FF486511020FBF743FEE4
:1056D00007211120FBF73FFE4FF488711220FBF7E2
:1056E0003AFE4FF430611320FBF735FE00212920EC
:1056F000FBF731FE44F210012B20FBF72CFE0021BA
:105700005020FBF728FEEF215120FBF724FE00215B
:105710005220FBF720FE40F23F115320FBF71BFE07
:105720004FF41C516020FBF716FE01216120FBF7AE
:1057300012FE00216A20FBF70EFE00218020FBF7FD
:105740000AFE0021812000E030E0FBF704FE00218A
:105750008220FBF700FE00218320FBF7FCFD0021E7
:105760008420FBF7F8FD00218520FBF7F4FD1021D4
:105770009020FBF7F0FD00219220FBF7ECFD0121CA
:105780009320FBF7E8FD4FF488719520FBF7E3FDCC
:1057900000219720FBF7DFFD00219820FBF7DBFDC0
:1057A00040F273110720FBF7D6FD6DE5FE488088B7
:1057B00049F2313188427DD141F21401E720FBF7F3
:1057C000CAFD4FF480710120FBF7C5FD4FF4007155
:1057D0000220FBF7C0FD41F238010320FBF7BBFDBF
:1057E00040F202210820FBF7B6FD00210920FBF75B
:1057F000B2FD00210A20FBF7AEFD00210C20FBF7D3
:10580000AAFD00210D20FBF7A6FD00210F20FBF7CC
:10581000A2FD00211020FBF79EFD07211120FBF7C0
:105820009AFD00211220FBF796FD00211320FBF7C3
:1058300092FDC82001F081FB41F290611020FBF73E
:105840008AFD40F227211120FBF785FD322001F06F
:1058500074FB0C211220FBF77EFD322001F06DFB62
:105860004FF400611320FBF776FD11212920FBF78F
:1058700072FD0B212B20FBF76EFD322001F05DFB4A
:1058800000212020FBF767FD40F23F112120FBF7AC
:1058900062FD00213020FBF75EFD4FF48371312063
:1058A000FBF759FD00213220FBF755FD4FF4017144
:1058B000352000E064E0FBF74EFD41F20A6136203E
:1058C000FBF749FD40F207713720FBF744FD4FF429
:1058D00083713820FBF73FFD40F207713920FBF759
:1058E0003AFD40F202413C20FBF735FD40F60F4106
:1058F0003D20FBF730FD00215020FBF72CFDEF2170
:105900005120FBF728FD00215220FBF724FD40F237
:105910003F115320FBF71FFD4FF41C516020FBF794
:105920001AFD01216120FBF716FD00216A20FBF71B
:1059300012FD00218020FBF70EFD00218120FBF7E6
:105940000AFD00218220FBF706FD00218320FBF7E2
:1059500002FD00218420FBF7FEFC00218520FBF7DF
:10596000FAFC10219020FBF7F6FC4FF4C061922066
:10597000FBF7F1FC40F233110720FBF7ECFC83E46A
:105980008948808845F2084188427DD14FF4807172
:105990000120FBF7E0FC4FF4E0610220FBF7DBFCA9
:1059A00041F230010320FBF7D6FC00210420FBF775
:1059B000D2FC40F207210820FBF7CDFC0021092092
:1059C000FBF7C9FC00210A20FBF7C5FC00210C20D5
:1059D000FBF7C1FC00210D20FBF7BDFC00210F20CF
:1059E000FBF7B9FC142001F0A8FA41F2B0611020D5
:1059F000FBF7B1FC01211120FBF7ADFC01211720C1
:105A0000FBF7A9FC4FF49C711220FBF7A4FC4FF4A8
:105A100000611320FBF79FFC09212920FBF79BFC69
:105A200009212A20FBF797FC0021A420FBF793FC17
:105A300000215020FBF78FFCEF215120FBF78BFC5E
:105A400000215220FBF787FC40F23F115320FBF767
:105A500082FC4FF41C516020FBF77DFC012161208A
:105A6000FBF779FC00216A20FBF775FC0021802000
:105A7000FBF771FC00218120FBF76DFC00218220E7
:105A8000FBF769FC002100E024E08320FBF763FCC6
:105A900000218420FBF75FFC00218520FBF75BFCE5
:105AA00013219020FBF757FC00219220FBF753FCB9
:105AB00003219320FBF74FFC4FF488719520FBF7EF
:105AC0004AFC40F273110720FBF745FC322001F03D
:105AD00034FAB8E43448808841F2055188427DD1D7
